{
  "address": "0x5FbDB2315678afecb367f032d93F642f64180aa3",
  "abi": [
    {
      "inputs": [
        {
          "internalType": "uint256",
          "name": "minimumAmount",
          "type": "uint256"
        },
        {
          "internalType": "uint256",
          "name": "numberOfMilestones",
          "type": "uint256"
        },
        {
          "internalType": "uint256[]",
          "name": "milestoneFunds",
          "type": "uint256[]"
        },
        {
          "internalType": "uint256",
          "name": "duration",
          "type": "uint256"
        },
        {
          "internalType": "uint256",
          "name": "targetAmount",
          "type": "uint256"
        }
      ],
      "name": "createCampaign",
      "outputs": [
        {
          "internalType": "contract CrowdFunding",
          "name": "",
          "type": "address"
        }
      ],
      "stateMutability": "nonpayable",
      "type": "function"
    },
    {
      "inputs": [
        {
          "internalType": "uint256",
          "name": "",
          "type": "uint256"
        }
      ],
      "name": "s_CampaignAddresses",
      "outputs": [
        {
          "internalType": "contract CrowdFunding",
          "name": "",
          "type": "address"
        }
      ],
      "stateMutability": "view",
      "type": "function"
    }
  ],
  "transactionHash": "0xdbc0cddc4ab6eb4cecebba2ca67675603e9dc8739891960f619eaa5e9a376895",
  "args": [],
  "numDeployments": 1,
  "solcInputHash": "e37914011f791047ca36101e03ce381d",
  "bytecode": "0x608060405234801561001057600080fd5b50611658806100206000396000f3fe60806040523480156200001157600080fd5b50600436106200003a5760003560e01c80633d745e55146200003f578063d860ea3c1462000075575b600080fd5b6200005d6004803603810190620000579190620001fe565b620000ab565b6040516200006c9190620002bb565b60405180910390f35b6200009360048036038101906200008d91906200044d565b620000eb565b604051620000a29190620002bb565b60405180910390f35b60008181548110620000bc57600080fd5b906000526020600020016000915054906101000a900473ffffffffffffffffffffffffffffffffffffffff1681565b60008086868686866040516200010190620001a1565b62000111959493929190620005d3565b604051809103906000f0801580156200012e573d6000803e3d6000fd5b5090506000819080600181540180825580915050600190039060005260206000200160009091909190916101000a81548173ffffffffffffffffffffffffffffffffffffffff021916908373ffffffffffffffffffffffffffffffffffffffff1602179055508091505095945050505050565b610feb806200063883390190565b6000604051905090565b600080fd5b600080fd5b6000819050919050565b620001d881620001c3565b8114620001e457600080fd5b50565b600081359050620001f881620001cd565b92915050565b600060208284031215620002175762000216620001b9565b5b60006200022784828501620001e7565b91505092915050565b600073ffffffffffffffffffffffffffffffffffffffff82169050919050565b6000819050919050565b60006200027b620002756200026f8462000230565b62000250565b62000230565b9050919050565b60006200028f826200025a565b9050919050565b6000620002a38262000282565b9050919050565b620002b58162000296565b82525050565b6000602082019050620002d26000830184620002aa565b92915050565b600080fd5b6000601f19601f8301169050919050565b7f4e487b7100000000000000000000000000000000000000000000000000000000600052604160045260246000fd5b6200032882620002dd565b810181811067ffffffffffffffff821117156200034a5762000349620002ee565b5b80604052505050565b60006200035f620001af565b90506200036d82826200031d565b919050565b600067ffffffffffffffff82111562000390576200038f620002ee565b5b602082029050602081019050919050565b600080fd5b6000620003bd620003b78462000372565b62000353565b90508083825260208201905060208402830185811115620003e357620003e2620003a1565b5b835b81811015620004105780620003fb8882620001e7565b845260208401935050602081019050620003e5565b5050509392505050565b600082601f830112620004325762000431620002d8565b5b813562000444848260208601620003a6565b91505092915050565b600080600080600060a086880312156200046c576200046b620001b9565b5b60006200047c88828901620001e7565b95505060206200048f88828901620001e7565b945050604086013567ffffffffffffffff811115620004b357620004b2620001be565b5b620004c1888289016200041a565b9350506060620004d488828901620001e7565b9250506080620004e788828901620001e7565b9150509295509295909350565b620004ff81620001c3565b82525050565b600081519050919050565b600082825260208201905092915050565b6000819050602082019050919050565b6200053c81620001c3565b82525050565b600062000550838362000531565b60208301905092915050565b6000602082019050919050565b6000620005768262000505565b62000582818562000510565b93506200058f8362000521565b8060005b83811015620005c6578151620005aa888262000542565b9750620005b7836200055c565b92505060018101905062000593565b5085935050505092915050565b600060a082019050620005ea6000830188620004f4565b620005f96020830187620004f4565b81810360408301526200060d818662000569565b90506200061e6060830185620004f4565b6200062d6080830184620004f4565b969550505050505056fe6101206040523480156200001257600080fd5b5060405162000feb38038062000feb8339818101604052810190620000389190620002f5565b8460808181525050826001908051906020019062000058929190620000c0565b50426004819055508160a0818152505060006005819055508360c081815250503373ffffffffffffffffffffffffffffffffffffffff1660e08173ffffffffffffffffffffffffffffffffffffffff168152505080610100818152505050505050506200039c565b828054828255906000526020600020908101928215620000ff579160200282015b82811115620000fe578251825591602001919060010190620000e1565b5b5090506200010e919062000112565b5090565b5b808211156200012d57600081600090555060010162000113565b5090565b6000604051905090565b600080fd5b600080fd5b6000819050919050565b6200015a8162000145565b81146200016657600080fd5b50565b6000815190506200017a816200014f565b92915050565b600080fd5b6000601f19601f8301169050919050565b7f4e487b7100000000000000000000000000000000000000000000000000000000600052604160045260246000fd5b620001d08262000185565b810181811067ffffffffffffffff82111715620001f257620001f162000196565b5b80604052505050565b60006200020762000131565b9050620002158282620001c5565b919050565b600067ffffffffffffffff82111562000238576200023762000196565b5b602082029050602081019050919050565b600080fd5b6000620002656200025f846200021a565b620001fb565b905080838252602082019050602084028301858111156200028b576200028a62000249565b5b835b81811015620002b85780620002a3888262000169565b8452602084019350506020810190506200028d565b5050509392505050565b600082601f830112620002da57620002d962000180565b5b8151620002ec8482602086016200024e565b91505092915050565b600080600080600060a086880312156200031457620003136200013b565b5b6000620003248882890162000169565b9550506020620003378882890162000169565b945050604086015167ffffffffffffffff8111156200035b576200035a62000140565b5b6200036988828901620002c2565b93505060606200037c8882890162000169565b92505060806200038f8882890162000169565b9150509295509295909350565b60805160a05160c05160e05161010051610bd9620004126000396000818161040c0152818161044e015261079001526000818161076601526107d80152600081816106b10152818161083001526108590152600081816106d5015261071f0152600081816103b201526106f90152610bd96000f3fe6080604052600436106100e15760003560e01c8063b60d42881161007f578063df6f7de111610059578063df6f7de1146102ce578063e354260d146102f9578063e4f7ede814610324578063f1916d9814610361576100f0565b8063b60d42881461026e578063cce8c26a14610278578063dba6335f146102a3576100f0565b80634b574a1a116100bb5780634b574a1a146101c25780634ec309d9146101ed578063911152bc14610218578063ad14f08f14610243576100f0565b806312065fe01461012f578063426427db1461015a5780634423f38b14610197576100f0565b366100f0576100ee61036b565b005b33346040517fef1836ef0000000000000000000000000000000000000000000000000000000081526004016101269291906109ea565b60405180910390fd5b34801561013b57600080fd5b50610144610668565b6040516101519190610a13565b60405180910390f35b34801561016657600080fd5b50610181600480360381019061017c9190610a5f565b610670565b60405161018e9190610a8c565b60405180910390f35b3480156101a357600080fd5b506101ac6106af565b6040516101b99190610a13565b60405180910390f35b3480156101ce57600080fd5b506101d76106d3565b6040516101e49190610a13565b60405180910390f35b3480156101f957600080fd5b506102026106f7565b60405161020f9190610a13565b60405180910390f35b34801561022457600080fd5b5061022d61071b565b60405161023a9190610ac2565b60405180910390f35b34801561024f57600080fd5b50610258610752565b6040516102659190610a13565b60405180910390f35b61027661036b565b005b34801561028457600080fd5b5061028d610758565b60405161029a9190610a13565b60405180910390f35b3480156102af57600080fd5b506102b8610764565b6040516102c59190610a8c565b60405180910390f35b3480156102da57600080fd5b506102e3610788565b6040516102f09190610a13565b60405180910390f35b34801561030557600080fd5b5061030e61078e565b60405161031b9190610a13565b60405180910390f35b34801561033057600080fd5b5061034b60048036038101906103469190610a5f565b6107b2565b6040516103589190610a13565b60405180910390f35b6103696107d6565b005b6001151561037761071b565b1515036103b0576040517f1726ad7700000000000000000000000000000000000000000000000000000000815260040160405180910390fd5b7f000000000000000000000000000000000000000000000000000000000000000034101561040a576040517f10e4544a00000000000000000000000000000000000000000000000000000000815260040160405180910390fd5b7f000000000000000000000000000000000000000000000000000000000000000034610434610668565b61043e9190610b0c565b11156104b35761044c610668565b7f00000000000000000000000000000000000000000000000000000000000000006104779190610b40565b6040517ff0c538350000000000000000000000000000000000000000000000000000000081526004016104aa9190610a13565b60405180910390fd5b60011515600260003373ffffffffffffffffffffffffffffffffffffffff1673ffffffffffffffffffffffffffffffffffffffff16815260200190815260200160002060009054906101000a900460ff161515036105665734600360003373ffffffffffffffffffffffffffffffffffffffff1673ffffffffffffffffffffffffffffffffffffffff168152602001908152602001600020600082825461055a9190610b0c565b92505081905550610666565b6000339080600181540180825580915050600190039060005260206000200160009091909190916101000a81548173ffffffffffffffffffffffffffffffffffffffff021916908373ffffffffffffffffffffffffffffffffffffffff1602179055506001600260003373ffffffffffffffffffffffffffffffffffffffff1673ffffffffffffffffffffffffffffffffffffffff16815260200190815260200160002060006101000a81548160ff02191690831515021790555034600360003373ffffffffffffffffffffffffffffffffffffffff1673ffffffffffffffffffffffffffffffffffffffff168152602001908152602001600020819055505b565b600047905090565b6000818154811061068057600080fd5b906000526020600020016000915054906101000a900473ffffffffffffffffffffffffffffffffffffffff1681565b7f000000000000000000000000000000000000000000000000000000000000000081565b7f000000000000000000000000000000000000000000000000000000000000000081565b7f000000000000000000000000000000000000000000000000000000000000000081565b60007f00000000000000000000000000000000000000000000000000000000000000006004544261074c9190610b40565b11905090565b60045481565b60008080549050905090565b7f000000000000000000000000000000000000000000000000000000000000000081565b60055481565b7f000000000000000000000000000000000000000000000000000000000000000081565b600181815481106107c257600080fd5b906000526020600020016000915090505481565b7f000000000000000000000000000000000000000000000000000000000000000073ffffffffffffffffffffffffffffffffffffffff163373ffffffffffffffffffffffffffffffffffffffff161461082e57600080fd5b7f0000000000000000000000000000000000000000000000000000000000000000600554106108b4577f00000000000000000000000000000000000000000000000000000000000000006040517fb8c95f970000000000000000000000000000000000000000000000000000000081526004016108ab9190610a13565b60405180910390fd5b60006001600554815481106108cc576108cb610b74565b5b906000526020600020015490506108e1610668565b81111561092c576108f0610668565b6040517f2c567b400000000000000000000000000000000000000000000000000000000081526004016109239190610a13565b60405180910390fd5b3373ffffffffffffffffffffffffffffffffffffffff166108fc829081150290604051600060405180830381858888f19350505050158015610972573d6000803e3d6000fd5b506001600560008282546109869190610b0c565b9250508190555050565b600073ffffffffffffffffffffffffffffffffffffffff82169050919050565b60006109bb82610990565b9050919050565b6109cb816109b0565b82525050565b6000819050919050565b6109e4816109d1565b82525050565b60006040820190506109ff60008301856109c2565b610a0c60208301846109db565b9392505050565b6000602082019050610a2860008301846109db565b92915050565b600080fd5b610a3c816109d1565b8114610a4757600080fd5b50565b600081359050610a5981610a33565b92915050565b600060208284031215610a7557610a74610a2e565b5b6000610a8384828501610a4a565b91505092915050565b6000602082019050610aa160008301846109c2565b92915050565b60008115159050919050565b610abc81610aa7565b82525050565b6000602082019050610ad76000830184610ab3565b92915050565b7f4e487b7100000000000000000000000000000000000000000000000000000000600052601160045260246000fd5b6000610b17826109d1565b9150610b22836109d1565b9250828201905080821115610b3a57610b39610add565b5b92915050565b6000610b4b826109d1565b9150610b56836109d1565b9250828203905081811115610b6e57610b6d610add565b5b92915050565b7f4e487b7100000000000000000000000000000000000000000000000000000000600052603260045260246000fdfea2646970667358221220e404c38ce2affba02c045aa62d750ce0e8921072dcb1fe383967f974c5e8d59264736f6c63430008110033a2646970667358221220fb40bd7e8fc270953a76a6d420d3c5b25f0f89703a132f5eee11c9ea06d7c14564736f6c63430008110033",
  "devdoc": {
    "kind": "dev",
    "methods": {},
    "version": 1
  },
  "userdoc": {
    "kind": "user",
    "methods": {},
    "version": 1
  },
  "storageLayout": {
    "storage": [
      {
        "astId": 6,
        "contract": "contracts/CFContractFactory.sol:CFContractFactory",
        "label": "s_CampaignAddresses",
        "offset": 0,
        "slot": "0",
        "type": "t_array(t_contract(CrowdFunding)334)dyn_storage"
      }
    ],
    "types": {
      "t_array(t_contract(CrowdFunding)334)dyn_storage": {
        "base": "t_contract(CrowdFunding)334",
        "encoding": "dynamic_array",
        "label": "contract CrowdFunding[]",
        "numberOfBytes": "32"
      },
      "t_contract(CrowdFunding)334": {
        "encoding": "inplace",
        "label": "contract CrowdFunding",
        "numberOfBytes": "20"
      }
    }
  }
}