{
  "address": "0xe7f1725E7734CE288F8367e1Bb143E90bb3F0512",
  "abi": [
    {
      "inputs": [
        {
          "internalType": "uint256",
          "name": "minimumAmount",
          "type": "uint256"
        },
        {
          "internalType": "uint256",
          "name": "numberofmilestones",
          "type": "uint256"
        },
        {
          "internalType": "uint256[]",
          "name": "milestonefunds",
          "type": "uint256[]"
        },
        {
          "internalType": "uint256",
          "name": "duration",
          "type": "uint256"
        },
        {
          "internalType": "uint256",
          "name": "targetamount",
          "type": "uint256"
        }
      ],
      "stateMutability": "nonpayable",
      "type": "constructor"
    },
    {
      "inputs": [
        {
          "internalType": "uint256",
          "name": "",
          "type": "uint256"
        }
      ],
      "name": "CrowdFunding__allMileStonesReached",
      "type": "error"
    },
    {
      "inputs": [],
      "name": "CrowdFunding__amountNotEnough",
      "type": "error"
    },
    {
      "inputs": [
        {
          "internalType": "uint256",
          "name": "",
          "type": "uint256"
        }
      ],
      "name": "CrowdFunding__fundGeneratedGreaterThanTargetAmount",
      "type": "error"
    },
    {
      "inputs": [
        {
          "internalType": "uint256",
          "name": "",
          "type": "uint256"
        }
      ],
      "name": "CrowdFunding__notEnoughFundsToReleaseForThisMilestone",
      "type": "error"
    },
    {
      "inputs": [],
      "name": "CrowdFunding__thisCampaignIsPastDeadline",
      "type": "error"
    },
    {
      "inputs": [
        {
          "internalType": "address",
          "name": "",
          "type": "address"
        }
      ],
      "name": "CrowdFunding__thisFunderHasntFundedTheCampagin",
      "type": "error"
    },
    {
      "inputs": [
        {
          "internalType": "address",
          "name": "",
          "type": "address"
        },
        {
          "internalType": "uint256",
          "name": "",
          "type": "uint256"
        }
      ],
      "name": "CrowdFunding__youHaveReachedFallback",
      "type": "error"
    },
    {
      "stateMutability": "payable",
      "type": "fallback"
    },
    {
      "inputs": [],
      "name": "differenceBetweenBlocks",
      "outputs": [
        {
          "internalType": "uint256",
          "name": "",
          "type": "uint256"
        }
      ],
      "stateMutability": "view",
      "type": "function"
    },
    {
      "inputs": [],
      "name": "fund",
      "outputs": [],
      "stateMutability": "payable",
      "type": "function"
    },
    {
      "inputs": [],
      "name": "fundRelease",
      "outputs": [],
      "stateMutability": "payable",
      "type": "function"
    },
    {
      "inputs": [],
      "name": "getBalance",
      "outputs": [
        {
          "internalType": "uint256",
          "name": "",
          "type": "uint256"
        }
      ],
      "stateMutability": "view",
      "type": "function"
    },
    {
      "inputs": [],
      "name": "getCurrentMilestone",
      "outputs": [
        {
          "internalType": "uint256",
          "name": "",
          "type": "uint256"
        }
      ],
      "stateMutability": "view",
      "type": "function"
    },
    {
      "inputs": [],
      "name": "getDuration",
      "outputs": [
        {
          "internalType": "uint256",
          "name": "",
          "type": "uint256"
        }
      ],
      "stateMutability": "view",
      "type": "function"
    },
    {
      "inputs": [
        {
          "internalType": "address",
          "name": "funder",
          "type": "address"
        }
      ],
      "name": "getFundsByAddress",
      "outputs": [
        {
          "internalType": "uint256",
          "name": "",
          "type": "uint256"
        }
      ],
      "stateMutability": "view",
      "type": "function"
    },
    {
      "inputs": [
        {
          "internalType": "uint256",
          "name": "index",
          "type": "uint256"
        }
      ],
      "name": "getMilestoneAmount",
      "outputs": [
        {
          "internalType": "uint256",
          "name": "",
          "type": "uint256"
        }
      ],
      "stateMutability": "view",
      "type": "function"
    },
    {
      "inputs": [],
      "name": "getMinimumAmount",
      "outputs": [
        {
          "internalType": "uint256",
          "name": "",
          "type": "uint256"
        }
      ],
      "stateMutability": "view",
      "type": "function"
    },
    {
      "inputs": [],
      "name": "getNumberOfFunders",
      "outputs": [
        {
          "internalType": "uint256",
          "name": "",
          "type": "uint256"
        }
      ],
      "stateMutability": "view",
      "type": "function"
    },
    {
      "inputs": [],
      "name": "getNumberOfMilestones",
      "outputs": [
        {
          "internalType": "uint256",
          "name": "",
          "type": "uint256"
        }
      ],
      "stateMutability": "view",
      "type": "function"
    },
    {
      "inputs": [],
      "name": "getTargetAmount",
      "outputs": [
        {
          "internalType": "uint256",
          "name": "",
          "type": "uint256"
        }
      ],
      "stateMutability": "view",
      "type": "function"
    },
    {
      "inputs": [],
      "name": "i_Duration",
      "outputs": [
        {
          "internalType": "uint256",
          "name": "",
          "type": "uint256"
        }
      ],
      "stateMutability": "view",
      "type": "function"
    },
    {
      "inputs": [],
      "name": "i_MinimumAmount",
      "outputs": [
        {
          "internalType": "uint256",
          "name": "",
          "type": "uint256"
        }
      ],
      "stateMutability": "view",
      "type": "function"
    },
    {
      "inputs": [],
      "name": "i_NumberOfMilestones",
      "outputs": [
        {
          "internalType": "uint256",
          "name": "",
          "type": "uint256"
        }
      ],
      "stateMutability": "view",
      "type": "function"
    },
    {
      "inputs": [],
      "name": "i_TargetAmount",
      "outputs": [
        {
          "internalType": "uint256",
          "name": "",
          "type": "uint256"
        }
      ],
      "stateMutability": "view",
      "type": "function"
    },
    {
      "inputs": [],
      "name": "i_owner",
      "outputs": [
        {
          "internalType": "address",
          "name": "",
          "type": "address"
        }
      ],
      "stateMutability": "view",
      "type": "function"
    },
    {
      "inputs": [],
      "name": "isDeadlinePassed",
      "outputs": [
        {
          "internalType": "bool",
          "name": "",
          "type": "bool"
        }
      ],
      "stateMutability": "view",
      "type": "function"
    },
    {
      "inputs": [],
      "name": "s_CurrentMilestone",
      "outputs": [
        {
          "internalType": "uint256",
          "name": "",
          "type": "uint256"
        }
      ],
      "stateMutability": "view",
      "type": "function"
    },
    {
      "inputs": [
        {
          "internalType": "uint256",
          "name": "",
          "type": "uint256"
        }
      ],
      "name": "s_Funders",
      "outputs": [
        {
          "internalType": "address",
          "name": "",
          "type": "address"
        }
      ],
      "stateMutability": "view",
      "type": "function"
    },
    {
      "inputs": [
        {
          "internalType": "uint256",
          "name": "",
          "type": "uint256"
        }
      ],
      "name": "s_MilestoneFunds",
      "outputs": [
        {
          "internalType": "uint256",
          "name": "",
          "type": "uint256"
        }
      ],
      "stateMutability": "view",
      "type": "function"
    },
    {
      "inputs": [],
      "name": "s_lastBlockTimeStamp",
      "outputs": [
        {
          "internalType": "uint256",
          "name": "",
          "type": "uint256"
        }
      ],
      "stateMutability": "view",
      "type": "function"
    },
    {
      "stateMutability": "payable",
      "type": "receive"
    }
  ],
  "transactionHash": "0xd0be4a00cba781ee04b4d1d9e40116d5129c905d5b52be4cab83c2eac9bdcec3",
  "args": [
    "50000000000000000000",
    4,
    [
      200,
      200,
      300,
      300
    ],
    120,
    1000
  ],
  "numDeployments": 1,
  "solcInputHash": "2de6bef586e6e48d28a98a99d360f8c4",
  "bytecode": "0x6101206040523480156200001257600080fd5b5060405162001434380380620014348339818101604052810190620000389190620002f5565b8460808181525050826001908051906020019062000058929190620000c0565b50426004819055508160a0818152505060006005819055508360c081815250503373ffffffffffffffffffffffffffffffffffffffff1660e08173ffffffffffffffffffffffffffffffffffffffff168152505080610100818152505050505050506200039c565b828054828255906000526020600020908101928215620000ff579160200282015b82811115620000fe578251825591602001919060010190620000e1565b5b5090506200010e919062000112565b5090565b5b808211156200012d57600081600090555060010162000113565b5090565b6000604051905090565b600080fd5b600080fd5b6000819050919050565b6200015a8162000145565b81146200016657600080fd5b50565b6000815190506200017a816200014f565b92915050565b600080fd5b6000601f19601f8301169050919050565b7f4e487b7100000000000000000000000000000000000000000000000000000000600052604160045260246000fd5b620001d08262000185565b810181811067ffffffffffffffff82111715620001f257620001f162000196565b5b80604052505050565b60006200020762000131565b9050620002158282620001c5565b919050565b600067ffffffffffffffff82111562000238576200023762000196565b5b602082029050602081019050919050565b600080fd5b6000620002656200025f846200021a565b620001fb565b905080838252602082019050602084028301858111156200028b576200028a62000249565b5b835b81811015620002b85780620002a3888262000169565b8452602084019350506020810190506200028d565b5050509392505050565b600082601f830112620002da57620002d962000180565b5b8151620002ec8482602086016200024e565b91505092915050565b600080600080600060a086880312156200031457620003136200013b565b5b6000620003248882890162000169565b9550506020620003378882890162000169565b945050604086015167ffffffffffffffff8111156200035b576200035a62000140565b5b6200036988828901620002c2565b93505060606200037c8882890162000169565b92505060806200038f8882890162000169565b9150509295509295909350565b60805160a05160c05160e051610100516110066200042e600039600081816105e00152818161065e01528181610a9d0152610b4f015260008181610b250152610bac0152600081816109a801528181610a3e01528181610c040152610c2d0152600081816109cc01528181610a660152610acb015260008181610586015281816109f00152610a1601526110066000f3fe6080604052600436106101395760003560e01c8063ad14f08f116100ab578063dba6335f1161006f578063dba6335f1461044c578063df6f7de114610477578063e354260d146104a2578063e4f7ede8146104cd578063e72549bd1461050a578063f1916d981461053557610148565b8063ad14f08f14610384578063ad2e8c9b146103af578063b60d4288146103da578063b94c475b146103e4578063cce8c26a1461042157610148565b80634b574a1a116100fd5780634b574a1a146102825780634ec309d9146102ad57806362066eb3146102d85780637200a0f314610303578063911152bc1461032e57806391ac4b881461035957610148565b806312065fe014610187578063299a017c146101b257806341e651ea146101dd578063426427db1461021a5780634423f38b1461025757610148565b366101485761014661053f565b005b33346040517fef1836ef00000000000000000000000000000000000000000000000000000000815260040161017e929190610dbe565b60405180910390fd5b34801561019357600080fd5b5061019c610878565b6040516101a99190610de7565b60405180910390f35b3480156101be57600080fd5b506101c7610880565b6040516101d49190610de7565b60405180910390f35b3480156101e957600080fd5b5061020460048036038101906101ff9190610e33565b61088a565b6040516102119190610de7565b60405180910390f35b34801561022657600080fd5b50610241600480360381019061023c9190610e8c565b610967565b60405161024e9190610eb9565b60405180910390f35b34801561026357600080fd5b5061026c6109a6565b6040516102799190610de7565b60405180910390f35b34801561028e57600080fd5b506102976109ca565b6040516102a49190610de7565b60405180910390f35b3480156102b957600080fd5b506102c26109ee565b6040516102cf9190610de7565b60405180910390f35b3480156102e457600080fd5b506102ed610a12565b6040516102fa9190610de7565b60405180910390f35b34801561030f57600080fd5b50610318610a3a565b6040516103259190610de7565b60405180910390f35b34801561033a57600080fd5b50610343610a62565b6040516103509190610eef565b60405180910390f35b34801561036557600080fd5b5061036e610a99565b60405161037b9190610de7565b60405180910390f35b34801561039057600080fd5b50610399610ac1565b6040516103a69190610de7565b60405180910390f35b3480156103bb57600080fd5b506103c4610ac7565b6040516103d19190610de7565b60405180910390f35b6103e261053f565b005b3480156103f057600080fd5b5061040b60048036038101906104069190610e8c565b610aef565b6040516104189190610de7565b60405180910390f35b34801561042d57600080fd5b50610436610b17565b6040516104439190610de7565b60405180910390f35b34801561045857600080fd5b50610461610b23565b60405161046e9190610eb9565b60405180910390f35b34801561048357600080fd5b5061048c610b47565b6040516104999190610de7565b60405180910390f35b3480156104ae57600080fd5b506104b7610b4d565b6040516104c49190610de7565b60405180910390f35b3480156104d957600080fd5b506104f460048036038101906104ef9190610e8c565b610b71565b6040516105019190610de7565b60405180910390f35b34801561051657600080fd5b5061051f610b95565b60405161052c9190610de7565b60405180910390f35b61053d610baa565b005b6001151561054b610a62565b151503610584576040517f1726ad7700000000000000000000000000000000000000000000000000000000815260040160405180910390fd5b7f00000000000000000000000000000000000000000000000000000000000000003410156105de576040517f10e4544a00000000000000000000000000000000000000000000000000000000815260040160405180910390fd5b7f0000000000000000000000000000000000000000000000000000000000000000610607610878565b11156106c3573373ffffffffffffffffffffffffffffffffffffffff166108fc349081150290604051600060405180830381858888f19350505050158015610653573d6000803e3d6000fd5b5061065c610878565b7f00000000000000000000000000000000000000000000000000000000000000006106879190610f39565b6040517ff0c538350000000000000000000000000000000000000000000000000000000081526004016106ba9190610de7565b60405180910390fd5b60011515600260003373ffffffffffffffffffffffffffffffffffffffff1673ffffffffffffffffffffffffffffffffffffffff16815260200190815260200160002060009054906101000a900460ff161515036107765734600360003373ffffffffffffffffffffffffffffffffffffffff1673ffffffffffffffffffffffffffffffffffffffff168152602001908152602001600020600082825461076a9190610f6d565b92505081905550610876565b6000339080600181540180825580915050600190039060005260206000200160009091909190916101000a81548173ffffffffffffffffffffffffffffffffffffffff021916908373ffffffffffffffffffffffffffffffffffffffff1602179055506001600260003373ffffffffffffffffffffffffffffffffffffffff1673ffffffffffffffffffffffffffffffffffffffff16815260200190815260200160002060006101000a81548160ff02191690831515021790555034600360003373ffffffffffffffffffffffffffffffffffffffff1673ffffffffffffffffffffffffffffffffffffffff168152602001908152602001600020819055505b565b600047905090565b6000600554905090565b6000801515600260008473ffffffffffffffffffffffffffffffffffffffff1673ffffffffffffffffffffffffffffffffffffffff16815260200190815260200160002060009054906101000a900460ff1615150361092057816040517fa37728310000000000000000000000000000000000000000000000000000000081526004016109179190610eb9565b60405180910390fd5b600360008373ffffffffffffffffffffffffffffffffffffffff1673ffffffffffffffffffffffffffffffffffffffff168152602001908152602001600020549050919050565b6000818154811061097757600080fd5b906000526020600020016000915054906101000a900473ffffffffffffffffffffffffffffffffffffffff1681565b7f000000000000000000000000000000000000000000000000000000000000000081565b7f000000000000000000000000000000000000000000000000000000000000000081565b7f000000000000000000000000000000000000000000000000000000000000000081565b60007f0000000000000000000000000000000000000000000000000000000000000000905090565b60007f0000000000000000000000000000000000000000000000000000000000000000905090565b60007f000000000000000000000000000000000000000000000000000000000000000060045442610a939190610f39565b11905090565b60007f0000000000000000000000000000000000000000000000000000000000000000905090565b60045481565b60007f0000000000000000000000000000000000000000000000000000000000000000905090565b600060018281548110610b0557610b04610fa1565b5b90600052602060002001549050919050565b60008080549050905090565b7f000000000000000000000000000000000000000000000000000000000000000081565b60055481565b7f000000000000000000000000000000000000000000000000000000000000000081565b60018181548110610b8157600080fd5b906000526020600020016000915090505481565b600060045442610ba59190610f39565b905090565b7f000000000000000000000000000000000000000000000000000000000000000073ffffffffffffffffffffffffffffffffffffffff163373ffffffffffffffffffffffffffffffffffffffff1614610c0257600080fd5b7f000000000000000000000000000000000000000000000000000000000000000060055410610c88577f00000000000000000000000000000000000000000000000000000000000000006040517fb8c95f97000000000000000000000000000000000000000000000000000000008152600401610c7f9190610de7565b60405180910390fd5b6000600160055481548110610ca057610c9f610fa1565b5b90600052602060002001549050610cb5610878565b811115610d0057610cc4610878565b6040517f2c567b40000000000000000000000000000000000000000000000000000000008152600401610cf79190610de7565b60405180910390fd5b3373ffffffffffffffffffffffffffffffffffffffff166108fc829081150290604051600060405180830381858888f19350505050158015610d46573d6000803e3d6000fd5b50600160056000828254610d5a9190610f6d565b9250508190555050565b600073ffffffffffffffffffffffffffffffffffffffff82169050919050565b6000610d8f82610d64565b9050919050565b610d9f81610d84565b82525050565b6000819050919050565b610db881610da5565b82525050565b6000604082019050610dd36000830185610d96565b610de06020830184610daf565b9392505050565b6000602082019050610dfc6000830184610daf565b92915050565b600080fd5b610e1081610d84565b8114610e1b57600080fd5b50565b600081359050610e2d81610e07565b92915050565b600060208284031215610e4957610e48610e02565b5b6000610e5784828501610e1e565b91505092915050565b610e6981610da5565b8114610e7457600080fd5b50565b600081359050610e8681610e60565b92915050565b600060208284031215610ea257610ea1610e02565b5b6000610eb084828501610e77565b91505092915050565b6000602082019050610ece6000830184610d96565b92915050565b60008115159050919050565b610ee981610ed4565b82525050565b6000602082019050610f046000830184610ee0565b92915050565b7f4e487b7100000000000000000000000000000000000000000000000000000000600052601160045260246000fd5b6000610f4482610da5565b9150610f4f83610da5565b9250828203905081811115610f6757610f66610f0a565b5b92915050565b6000610f7882610da5565b9150610f8383610da5565b9250828201905080821115610f9b57610f9a610f0a565b5b92915050565b7f4e487b7100000000000000000000000000000000000000000000000000000000600052603260045260246000fdfea2646970667358221220b002886e7a42ec539721ac5b504f917bdcda4281e0eff771b461548d47e1c48264736f6c63430008110033",
  "devdoc": {
    "kind": "dev",
    "methods": {},
    "version": 1
  },
  "userdoc": {
    "kind": "user",
    "methods": {},
    "version": 1
  },
  "storageLayout": {
    "storage": [
      {
        "astId": 88,
        "contract": "contracts/CrowdFunding.sol:CrowdFunding",
        "label": "s_Funders",
        "offset": 0,
        "slot": "0",
        "type": "t_array(t_address)dyn_storage"
      },
      {
        "astId": 91,
        "contract": "contracts/CrowdFunding.sol:CrowdFunding",
        "label": "s_MilestoneFunds",
        "offset": 0,
        "slot": "1",
        "type": "t_array(t_uint256)dyn_storage"
      },
      {
        "astId": 95,
        "contract": "contracts/CrowdFunding.sol:CrowdFunding",
        "label": "s_FundersMap",
        "offset": 0,
        "slot": "2",
        "type": "t_mapping(t_address,t_bool)"
      },
      {
        "astId": 99,
        "contract": "contracts/CrowdFunding.sol:CrowdFunding",
        "label": "s_FundersFund",
        "offset": 0,
        "slot": "3",
        "type": "t_mapping(t_address,t_uint256)"
      },
      {
        "astId": 101,
        "contract": "contracts/CrowdFunding.sol:CrowdFunding",
        "label": "s_lastBlockTimeStamp",
        "offset": 0,
        "slot": "4",
        "type": "t_uint256"
      },
      {
        "astId": 107,
        "contract": "contracts/CrowdFunding.sol:CrowdFunding",
        "label": "s_CurrentMilestone",
        "offset": 0,
        "slot": "5",
        "type": "t_uint256"
      }
    ],
    "types": {
      "t_address": {
        "encoding": "inplace",
        "label": "address",
        "numberOfBytes": "20"
      },
      "t_array(t_address)dyn_storage": {
        "base": "t_address",
        "encoding": "dynamic_array",
        "label": "address[]",
        "numberOfBytes": "32"
      },
      "t_array(t_uint256)dyn_storage": {
        "base": "t_uint256",
        "encoding": "dynamic_array",
        "label": "uint256[]",
        "numberOfBytes": "32"
      },
      "t_bool": {
        "encoding": "inplace",
        "label": "bool",
        "numberOfBytes": "1"
      },
      "t_mapping(t_address,t_bool)": {
        "encoding": "mapping",
        "key": "t_address",
        "label": "mapping(address => bool)",
        "numberOfBytes": "32",
        "value": "t_bool"
      },
      "t_mapping(t_address,t_uint256)": {
        "encoding": "mapping",
        "key": "t_address",
        "label": "mapping(address => uint256)",
        "numberOfBytes": "32",
        "value": "t_uint256"
      },
      "t_uint256": {
        "encoding": "inplace",
        "label": "uint256",
        "numberOfBytes": "32"
      }
    }
  }
}