{
  "address": "0xe7f1725E7734CE288F8367e1Bb143E90bb3F0512",
  "abi": [
    {
      "inputs": [
        {
          "internalType": "uint256",
          "name": "minimumAmount",
          "type": "uint256"
        },
        {
          "internalType": "uint256",
          "name": "numberofmilestones",
          "type": "uint256"
        },
        {
          "internalType": "uint256[]",
          "name": "milestonefunds",
          "type": "uint256[]"
        },
        {
          "internalType": "uint256",
          "name": "duration",
          "type": "uint256"
        },
        {
          "internalType": "uint256",
          "name": "targetamount",
          "type": "uint256"
        }
      ],
      "stateMutability": "nonpayable",
      "type": "constructor"
    },
    {
      "inputs": [
        {
          "internalType": "uint256",
          "name": "",
          "type": "uint256"
        }
      ],
      "name": "CrowdFunding__allMileStonesReached",
      "type": "error"
    },
    {
      "inputs": [],
      "name": "CrowdFunding__amountNotEnough",
      "type": "error"
    },
    {
      "inputs": [
        {
          "internalType": "uint256",
          "name": "",
          "type": "uint256"
        }
      ],
      "name": "CrowdFunding__fundGeneratedGreaterThanTargetAmount",
      "type": "error"
    },
    {
      "inputs": [
        {
          "internalType": "uint256",
          "name": "",
          "type": "uint256"
        }
      ],
      "name": "CrowdFunding__notEnoughFundsToReleaseForThisMilestone",
      "type": "error"
    },
    {
      "inputs": [],
      "name": "CrowdFunding__thisCampaignIsPastDeadline",
      "type": "error"
    },
    {
      "inputs": [
        {
          "internalType": "address",
          "name": "",
          "type": "address"
        },
        {
          "internalType": "uint256",
          "name": "",
          "type": "uint256"
        }
      ],
      "name": "CrowdFunding__youHaveReachedFallback",
      "type": "error"
    },
    {
      "stateMutability": "payable",
      "type": "fallback"
    },
    {
      "inputs": [],
      "name": "fund",
      "outputs": [],
      "stateMutability": "payable",
      "type": "function"
    },
    {
      "inputs": [],
      "name": "fundRelease",
      "outputs": [],
      "stateMutability": "payable",
      "type": "function"
    },
    {
      "inputs": [],
      "name": "getBalance",
      "outputs": [
        {
          "internalType": "uint256",
          "name": "",
          "type": "uint256"
        }
      ],
      "stateMutability": "view",
      "type": "function"
    },
    {
      "inputs": [],
      "name": "getNumberOfFunders",
      "outputs": [
        {
          "internalType": "uint256",
          "name": "",
          "type": "uint256"
        }
      ],
      "stateMutability": "view",
      "type": "function"
    },
    {
      "inputs": [],
      "name": "i_Duration",
      "outputs": [
        {
          "internalType": "uint256",
          "name": "",
          "type": "uint256"
        }
      ],
      "stateMutability": "view",
      "type": "function"
    },
    {
      "inputs": [],
      "name": "i_MinimumAmount",
      "outputs": [
        {
          "internalType": "uint256",
          "name": "",
          "type": "uint256"
        }
      ],
      "stateMutability": "view",
      "type": "function"
    },
    {
      "inputs": [],
      "name": "i_NumberOfMilestones",
      "outputs": [
        {
          "internalType": "uint256",
          "name": "",
          "type": "uint256"
        }
      ],
      "stateMutability": "view",
      "type": "function"
    },
    {
      "inputs": [],
      "name": "i_TargetAmount",
      "outputs": [
        {
          "internalType": "uint256",
          "name": "",
          "type": "uint256"
        }
      ],
      "stateMutability": "view",
      "type": "function"
    },
    {
      "inputs": [],
      "name": "i_owner",
      "outputs": [
        {
          "internalType": "address",
          "name": "",
          "type": "address"
        }
      ],
      "stateMutability": "view",
      "type": "function"
    },
    {
      "inputs": [],
      "name": "isDeadlinePassed",
      "outputs": [
        {
          "internalType": "bool",
          "name": "",
          "type": "bool"
        }
      ],
      "stateMutability": "view",
      "type": "function"
    },
    {
      "inputs": [],
      "name": "s_CurrentMilestone",
      "outputs": [
        {
          "internalType": "uint256",
          "name": "",
          "type": "uint256"
        }
      ],
      "stateMutability": "view",
      "type": "function"
    },
    {
      "inputs": [
        {
          "internalType": "uint256",
          "name": "",
          "type": "uint256"
        }
      ],
      "name": "s_Funders",
      "outputs": [
        {
          "internalType": "address",
          "name": "",
          "type": "address"
        }
      ],
      "stateMutability": "view",
      "type": "function"
    },
    {
      "inputs": [
        {
          "internalType": "uint256",
          "name": "",
          "type": "uint256"
        }
      ],
      "name": "s_MilestoneFunds",
      "outputs": [
        {
          "internalType": "uint256",
          "name": "",
          "type": "uint256"
        }
      ],
      "stateMutability": "view",
      "type": "function"
    },
    {
      "inputs": [],
      "name": "s_lastBlockTimeStamp",
      "outputs": [
        {
          "internalType": "uint256",
          "name": "",
          "type": "uint256"
        }
      ],
      "stateMutability": "view",
      "type": "function"
    },
    {
      "stateMutability": "payable",
      "type": "receive"
    }
  ],
  "transactionHash": "0xfd2cedcad3c8bd4bf5731af2c25ca29702b09ac5b7d7e9edc6662f8292c1c121",
  "args": [
    "50000000000000000000",
    4,
    [
      200,
      200,
      300,
      300
    ],
    120,
    1000
  ],
  "numDeployments": 1,
  "solcInputHash": "e37914011f791047ca36101e03ce381d",
  "bytecode": "0x6101206040523480156200001257600080fd5b5060405162000feb38038062000feb8339818101604052810190620000389190620002f5565b8460808181525050826001908051906020019062000058929190620000c0565b50426004819055508160a0818152505060006005819055508360c081815250503373ffffffffffffffffffffffffffffffffffffffff1660e08173ffffffffffffffffffffffffffffffffffffffff168152505080610100818152505050505050506200039c565b828054828255906000526020600020908101928215620000ff579160200282015b82811115620000fe578251825591602001919060010190620000e1565b5b5090506200010e919062000112565b5090565b5b808211156200012d57600081600090555060010162000113565b5090565b6000604051905090565b600080fd5b600080fd5b6000819050919050565b6200015a8162000145565b81146200016657600080fd5b50565b6000815190506200017a816200014f565b92915050565b600080fd5b6000601f19601f8301169050919050565b7f4e487b7100000000000000000000000000000000000000000000000000000000600052604160045260246000fd5b620001d08262000185565b810181811067ffffffffffffffff82111715620001f257620001f162000196565b5b80604052505050565b60006200020762000131565b9050620002158282620001c5565b919050565b600067ffffffffffffffff82111562000238576200023762000196565b5b602082029050602081019050919050565b600080fd5b6000620002656200025f846200021a565b620001fb565b905080838252602082019050602084028301858111156200028b576200028a62000249565b5b835b81811015620002b85780620002a3888262000169565b8452602084019350506020810190506200028d565b5050509392505050565b600082601f830112620002da57620002d962000180565b5b8151620002ec8482602086016200024e565b91505092915050565b600080600080600060a086880312156200031457620003136200013b565b5b6000620003248882890162000169565b9550506020620003378882890162000169565b945050604086015167ffffffffffffffff8111156200035b576200035a62000140565b5b6200036988828901620002c2565b93505060606200037c8882890162000169565b92505060806200038f8882890162000169565b9150509295509295909350565b60805160a05160c05160e05161010051610bd9620004126000396000818161040c0152818161044e015261079001526000818161076601526107d80152600081816106b10152818161083001526108590152600081816106d5015261071f0152600081816103b201526106f90152610bd96000f3fe6080604052600436106100e15760003560e01c8063b60d42881161007f578063df6f7de111610059578063df6f7de1146102ce578063e354260d146102f9578063e4f7ede814610324578063f1916d9814610361576100f0565b8063b60d42881461026e578063cce8c26a14610278578063dba6335f146102a3576100f0565b80634b574a1a116100bb5780634b574a1a146101c25780634ec309d9146101ed578063911152bc14610218578063ad14f08f14610243576100f0565b806312065fe01461012f578063426427db1461015a5780634423f38b14610197576100f0565b366100f0576100ee61036b565b005b33346040517fef1836ef0000000000000000000000000000000000000000000000000000000081526004016101269291906109ea565b60405180910390fd5b34801561013b57600080fd5b50610144610668565b6040516101519190610a13565b60405180910390f35b34801561016657600080fd5b50610181600480360381019061017c9190610a5f565b610670565b60405161018e9190610a8c565b60405180910390f35b3480156101a357600080fd5b506101ac6106af565b6040516101b99190610a13565b60405180910390f35b3480156101ce57600080fd5b506101d76106d3565b6040516101e49190610a13565b60405180910390f35b3480156101f957600080fd5b506102026106f7565b60405161020f9190610a13565b60405180910390f35b34801561022457600080fd5b5061022d61071b565b60405161023a9190610ac2565b60405180910390f35b34801561024f57600080fd5b50610258610752565b6040516102659190610a13565b60405180910390f35b61027661036b565b005b34801561028457600080fd5b5061028d610758565b60405161029a9190610a13565b60405180910390f35b3480156102af57600080fd5b506102b8610764565b6040516102c59190610a8c565b60405180910390f35b3480156102da57600080fd5b506102e3610788565b6040516102f09190610a13565b60405180910390f35b34801561030557600080fd5b5061030e61078e565b60405161031b9190610a13565b60405180910390f35b34801561033057600080fd5b5061034b60048036038101906103469190610a5f565b6107b2565b6040516103589190610a13565b60405180910390f35b6103696107d6565b005b6001151561037761071b565b1515036103b0576040517f1726ad7700000000000000000000000000000000000000000000000000000000815260040160405180910390fd5b7f000000000000000000000000000000000000000000000000000000000000000034101561040a576040517f10e4544a00000000000000000000000000000000000000000000000000000000815260040160405180910390fd5b7f000000000000000000000000000000000000000000000000000000000000000034610434610668565b61043e9190610b0c565b11156104b35761044c610668565b7f00000000000000000000000000000000000000000000000000000000000000006104779190610b40565b6040517ff0c538350000000000000000000000000000000000000000000000000000000081526004016104aa9190610a13565b60405180910390fd5b60011515600260003373ffffffffffffffffffffffffffffffffffffffff1673ffffffffffffffffffffffffffffffffffffffff16815260200190815260200160002060009054906101000a900460ff161515036105665734600360003373ffffffffffffffffffffffffffffffffffffffff1673ffffffffffffffffffffffffffffffffffffffff168152602001908152602001600020600082825461055a9190610b0c565b92505081905550610666565b6000339080600181540180825580915050600190039060005260206000200160009091909190916101000a81548173ffffffffffffffffffffffffffffffffffffffff021916908373ffffffffffffffffffffffffffffffffffffffff1602179055506001600260003373ffffffffffffffffffffffffffffffffffffffff1673ffffffffffffffffffffffffffffffffffffffff16815260200190815260200160002060006101000a81548160ff02191690831515021790555034600360003373ffffffffffffffffffffffffffffffffffffffff1673ffffffffffffffffffffffffffffffffffffffff168152602001908152602001600020819055505b565b600047905090565b6000818154811061068057600080fd5b906000526020600020016000915054906101000a900473ffffffffffffffffffffffffffffffffffffffff1681565b7f000000000000000000000000000000000000000000000000000000000000000081565b7f000000000000000000000000000000000000000000000000000000000000000081565b7f000000000000000000000000000000000000000000000000000000000000000081565b60007f00000000000000000000000000000000000000000000000000000000000000006004544261074c9190610b40565b11905090565b60045481565b60008080549050905090565b7f000000000000000000000000000000000000000000000000000000000000000081565b60055481565b7f000000000000000000000000000000000000000000000000000000000000000081565b600181815481106107c257600080fd5b906000526020600020016000915090505481565b7f000000000000000000000000000000000000000000000000000000000000000073ffffffffffffffffffffffffffffffffffffffff163373ffffffffffffffffffffffffffffffffffffffff161461082e57600080fd5b7f0000000000000000000000000000000000000000000000000000000000000000600554106108b4577f00000000000000000000000000000000000000000000000000000000000000006040517fb8c95f970000000000000000000000000000000000000000000000000000000081526004016108ab9190610a13565b60405180910390fd5b60006001600554815481106108cc576108cb610b74565b5b906000526020600020015490506108e1610668565b81111561092c576108f0610668565b6040517f2c567b400000000000000000000000000000000000000000000000000000000081526004016109239190610a13565b60405180910390fd5b3373ffffffffffffffffffffffffffffffffffffffff166108fc829081150290604051600060405180830381858888f19350505050158015610972573d6000803e3d6000fd5b506001600560008282546109869190610b0c565b9250508190555050565b600073ffffffffffffffffffffffffffffffffffffffff82169050919050565b60006109bb82610990565b9050919050565b6109cb816109b0565b82525050565b6000819050919050565b6109e4816109d1565b82525050565b60006040820190506109ff60008301856109c2565b610a0c60208301846109db565b9392505050565b6000602082019050610a2860008301846109db565b92915050565b600080fd5b610a3c816109d1565b8114610a4757600080fd5b50565b600081359050610a5981610a33565b92915050565b600060208284031215610a7557610a74610a2e565b5b6000610a8384828501610a4a565b91505092915050565b6000602082019050610aa160008301846109c2565b92915050565b60008115159050919050565b610abc81610aa7565b82525050565b6000602082019050610ad76000830184610ab3565b92915050565b7f4e487b7100000000000000000000000000000000000000000000000000000000600052601160045260246000fd5b6000610b17826109d1565b9150610b22836109d1565b9250828201905080821115610b3a57610b39610add565b5b92915050565b6000610b4b826109d1565b9150610b56836109d1565b9250828203905081811115610b6e57610b6d610add565b5b92915050565b7f4e487b7100000000000000000000000000000000000000000000000000000000600052603260045260246000fdfea2646970667358221220e404c38ce2affba02c045aa62d750ce0e8921072dcb1fe383967f974c5e8d59264736f6c63430008110033",
  "devdoc": {
    "kind": "dev",
    "methods": {},
    "version": 1
  },
  "userdoc": {
    "kind": "user",
    "methods": {},
    "version": 1
  },
  "storageLayout": {
    "storage": [
      {
        "astId": 75,
        "contract": "contracts/CrowdFunding.sol:CrowdFunding",
        "label": "s_Funders",
        "offset": 0,
        "slot": "0",
        "type": "t_array(t_address)dyn_storage"
      },
      {
        "astId": 78,
        "contract": "contracts/CrowdFunding.sol:CrowdFunding",
        "label": "s_MilestoneFunds",
        "offset": 0,
        "slot": "1",
        "type": "t_array(t_uint256)dyn_storage"
      },
      {
        "astId": 82,
        "contract": "contracts/CrowdFunding.sol:CrowdFunding",
        "label": "s_FundersMap",
        "offset": 0,
        "slot": "2",
        "type": "t_mapping(t_address,t_bool)"
      },
      {
        "astId": 86,
        "contract": "contracts/CrowdFunding.sol:CrowdFunding",
        "label": "s_FundersFund",
        "offset": 0,
        "slot": "3",
        "type": "t_mapping(t_address,t_uint256)"
      },
      {
        "astId": 88,
        "contract": "contracts/CrowdFunding.sol:CrowdFunding",
        "label": "s_lastBlockTimeStamp",
        "offset": 0,
        "slot": "4",
        "type": "t_uint256"
      },
      {
        "astId": 94,
        "contract": "contracts/CrowdFunding.sol:CrowdFunding",
        "label": "s_CurrentMilestone",
        "offset": 0,
        "slot": "5",
        "type": "t_uint256"
      }
    ],
    "types": {
      "t_address": {
        "encoding": "inplace",
        "label": "address",
        "numberOfBytes": "20"
      },
      "t_array(t_address)dyn_storage": {
        "base": "t_address",
        "encoding": "dynamic_array",
        "label": "address[]",
        "numberOfBytes": "32"
      },
      "t_array(t_uint256)dyn_storage": {
        "base": "t_uint256",
        "encoding": "dynamic_array",
        "label": "uint256[]",
        "numberOfBytes": "32"
      },
      "t_bool": {
        "encoding": "inplace",
        "label": "bool",
        "numberOfBytes": "1"
      },
      "t_mapping(t_address,t_bool)": {
        "encoding": "mapping",
        "key": "t_address",
        "label": "mapping(address => bool)",
        "numberOfBytes": "32",
        "value": "t_bool"
      },
      "t_mapping(t_address,t_uint256)": {
        "encoding": "mapping",
        "key": "t_address",
        "label": "mapping(address => uint256)",
        "numberOfBytes": "32",
        "value": "t_uint256"
      },
      "t_uint256": {
        "encoding": "inplace",
        "label": "uint256",
        "numberOfBytes": "32"
      }
    }
  }
}